:020000040000FA
:10000000383400200904000013040000110400002B
:10001000150400001704000019040000000000008F
:100020000000000000000000000000001B040000B1
:100030001D04000000000000D9030000650400005A
:100040002304000025040000270400002904000008
:100050002B0400002D0400002F04000031040000D8
:100060003304000035040000000000000000000020
:100070000000000000000000000000000000000080
:100080000000000000000000000000000000000070
:100090000000000000000000000000000000000060
:1000A0000000000000000000000000000000000050
:1003C000DFF810D000F03CF800480047AD04000012
:1003D000AFF3008038340020EFF3098020B120E92A
:1003E000F00F074909680860054806490A68026075
:1003F0001068B0E8F00F80F309884EF0040E7047E3
:1004000020000020240000200B4880470B480047B4
:10041000FEE7FEE7FEE7FEE7FEE7FEE7FEE7FEE7B4
:10042000FEE7FEE7FEE7FEE7FEE7FEE7FEE7FEE7A4
:10043000FEE7FEE7FEE700006D040000C1030000D8
:10044000064C074D06E0E06840F0010394E8070021
:1004500098471034AC42F6D3FFF7B6FF70070000A0
:100460009007000010B500F043F910BD034804499F
:10047000086004480449086070470000000000005C
:1004800008ED00E0001BB7003400002002E008C8BF
:10049000121F08C1002AFAD170477047002001E0FE
:1004A00001C1121F002AFBD17047000010B5114B8B
:1004B0004FF011321049114800F06AF8104B002239
:1004C0001049114800F064F8104B002210491148FF
:1004D00000F05EF80948104908600B48486008467B
:1004E00000680E4908600B480D49086000F092F85A
:1004F000002010BD38100020250700000800002053
:10050000382000204D070000100000203830002067
:100510006D070000180000202C000020240000209F
:100520002800002030B502461148006850434FF4BF
:100530007A71B0FBF1F0401E4FF0E021486148179E
:100540000721002804DB4B071C0E0A4B1C5406E055
:100550004B071D0E084B00F00F04241F1D5500BF54
:1005600000204FF0E02188610720086130BD0000C5
:100570003400002000E400E018ED00E010B504466F
:1005800002480068446000F053F810BD20000020CD
:1005900030B54FF080751C1F234625601C1F234675
:1005A000216014251C1F2346256012251C1F23468D
:1005B000256003251C1F2346256002251C1F23469A
:1005C000256001251C1F234625601C1F2346226031
:1005D00011251C1F2346256010251C1F234625605E
:1005E00009251C1F2346256008251C1F234625605E
:1005F00007251C1F2346256006251C1F2346256052
:1006000005251C1F2346256004251C1F2346256045
:10061000036030BD002080F3098800BFFF2003493C
:100620000870C80601491E390860704722ED00E0D5
:1006300000B52748006827490968884212D1264832
:100640000068406820B924480068244908603BE0FD
:1006500021484068406820B91F4840681F49086029
:1006600032E000BD1C48006819490968884212D16F
:1006700019484068406820B9174840681749086021
:1006800022E015480068406820B11248006813490C
:10069000086019E0E5E7104840680D49096888429C
:1006A00012D10D480068406820B90B4800680B491A
:1006B000086009E008484068406820B105480068C3
:1006C0000649086000E0CCE700F00AF800BFC8E780
:1006D00020000020280000202C0000202400002002
:1006E0004FF08050014908607047000004ED00E0C1
:1006F00010B500240EE00A4850F82400406840B1CC
:10070000074850F824004068401E054951F824105D
:100710004860641C022CEEDBFFF78AFF10BD00006E
:100720002C0000200A20FFF7FDFE00BF0020064934
:1007300008606420FFF722FF01200349086064205D
:10074000FFF71CFFF2E700000000002000BF0020C0
:10075000054908606420FFF711FF01200249086085
:100760006420FFF70BFFF2E70400002000BFFEE764
:100770009007000000000020380000008C040000FA
:10078000C807000038000020003400009C0400006E
:100790000000000000000000000000000000000059
:1007A0000000000000000000000000000000000049
:1007B0000000000000000000000000000000000039
:0807C00000000000001BB7005F
:04000005000003C133
:00000001FF
