:020000040000FA
:10000000F83400200904000013040000110400006B
:10001000150400001704000019040000000000008F
:100020000000000000000000000000001B040000B1
:100030001D04000000000000D9030000650400005A
:100040002304000025040000270400002904000008
:100050002B0400002D0400002F04000031040000D8
:100060003304000035040000000000000000000020
:100070000000000000000000000000000000000080
:100080000000000000000000000000000000000070
:100090000000000000000000000000000000000060
:1000A0000000000000000000000000000000000050
:1003C000DFF810D000F03CF800480047AD04000012
:1003D000AFF30080F8340020EFF3098020B120E96A
:1003E000F00F074909680860054806490A68026075
:1003F0001068B0E8F00F80F309884EF0040E7047E3
:100400000C000020100000200B4880470B480047DC
:10041000FEE7FEE7FEE7FEE7FEE7FEE7FEE7FEE7B4
:10042000FEE7FEE7FEE7FEE7FEE7FEE7FEE7FEE7A4
:10043000FEE7FEE7FEE700006D040000C1030000D8
:10044000064C074D06E0E06840F0010394E8070021
:1004500098471034AC42F6D3FFF7B6FF040A000009
:10046000240A000010B500F0EBF910BD0348044960
:10047000086004480449086070470000000000005C
:1004800008ED00E0001BB7002000002002E008C8D3
:10049000121F08C1002AFAD170477047002001E0FE
:1004A00001C1121F002AFBD17047000008B500F0FF
:1004B0008DF90020114B4FF0113211490090114875
:1004C00000F0F2F80120104B002210490090104873
:1004D00000F0EAF81F200F4B00220F4900900F4850
:1004E00000F0E2F80D480E49086000F0CFF80D4921
:1004F000086000F037F9002008BD00006C100020F3
:10050000BD080000240000206C200020E10800004D
:100510003C0000206C300020010900005400002045
:10052000140000201000002001238B4002689A4331
:10053000026070472020704700B50146087818B166
:100540000878134A105C00BD088800F47F4030B181
:100550000888C0F307200E4A105C0830F3E70868EB
:1005600000F47F0030B10868C0F30740084A105C0F
:100570001030E8E7086800F07F4028B10868000EF6
:10058000034A105C1830DEE7FFF7D4FFDBE700001A
:100590000409000000210160704701238B400268BC
:1005A0001A4302607047486002680A60026851603E
:1005B00001608268521C82607047406000600021C8
:1005C00081607047D1E900325A60D1E900231A6096
:1005D0008268521E82607047006040607047000071
:1005E00030B502461148006850434FF47A71B0FBB1
:1005F000F1F0401E4FF0E021486148170721002824
:1006000004DB4B071C0E0A4B1C5406E04B071D0E67
:10061000084B00F00F04241F1D5500BF00204FF0B1
:10062000E02188610720086130BD00002000002023
:1006300000E400E018ED00E070B5044600F01AF8A0
:10064000054621460648006800F01AF9044800688B
:1006500000F0DEF8284600F013F800F091F870BDC5
:100660000C00002010B50248FFF7A7FF10BD0000E6
:10067000EC30002000BFEFF31081084672B67047DF
:1006800000BF80F3108800BF7047000010B5044819
:10069000FFF752FF0446034850F8240010BD000045
:1006A0001C0000206C3000202DE9F04105460F466B
:1006B00090461C46069E4FF08071201F0446016044
:1006C000201F044607601421201F044601601221E8
:1006D000201F044601600321201F044601600221FF
:1006E000201F044601600121201F04460160201FD5
:1006F0000446C0F800801121201F0446016010212B
:10070000201F044601600921201F044601600821C2
:10071000201F044601600721201F044601600621B6
:10072000201F044601600521201F044601600421AA
:10073000201F044601602C60002068602E61686103
:1007400005F10800FFF748FF044840F826503146FD
:100750000348FFF722FFBDE8F08100006C30002065
:100760001C000020002080F3098800BFFF200349FF
:100770000870C80601491E390860704722ED00E084
:1007800070B5FFF777FF05460D480078002803DDB8
:100790002846FFF775FF70BDFFF778FF044609484C
:1007A0000068A04206D0084804602846FFF768FFAA
:1007B00000F03EF82846FFF763FF00BFEBE70000BC
:1007C000180000200C0000201000002010B500F0E0
:1007D00009F80348FFF7DEFEFFF744FF10BD0000F5
:1007E0001C000020002001490870704718000020FC
:1007F00010B504460449206941F8204003482169A6
:10080000FFF7CBFE10BD00006C3000201C00002064
:1008100010B504460020044A216942F8210003482B
:100820002169FFF781FE10BD6C3000201C00002004
:100830004FF08050014908607047000004ED00E06F
:1008400070B5FFF717FF06460C4844680CE0A4F1AA
:1008500008056868401E686028B9284600F020F83E
:100860002846FFF7C5FF646804488442EFD130464C
:10087000FFF706FFFFF784FF70BD0000EC3000209B
:1008800070B504460D46656004F108010348FFF7A2
:100890008AFE606940F00200606170BDEC300020AB
:1008A00010B5044604F108010348FFF78BFE6069A8
:1008B00020F00200606110BDEC3000200A20FFF73C
:1008C0008FFE00BF0020054908600120FFF7B4FE3D
:1008D000012002490860FFF7AFFEF3E700000020A7
:1008E00000BF0020054908600120FFF7A5FE012098
:1008F00002490860FFF7A0FEF3E7000004000020B3
:1009000000BFFEE7FF00010002000100030001003C
:1009100002000100040001000200010003000100C8
:1009200002000100050001000200010003000100B7
:1009300002000100040001000200010003000100A8
:100940000200010006000100020001000300010096
:100950000200010004000100020001000300010088
:100960000200010005000100020001000300010077
:100970000200010004000100020001000300010068
:100980000200010007000100020001000300010055
:100990000200010004000100020001000300010048
:1009A0000200010005000100020001000300010037
:1009B0000200010004000100020001000300010028
:1009C0000200010006000100020001000300010016
:1009D0000200010004000100020001000300010008
:1009E00002000100050001000200010003000100F7
:1009F00002000100040001000200010003000100E8
:100A000002000100240A0000000000202400000071
:100A10008C040000480A000024000020D4340000A8
:100A20009C04000000000000000000000000000026
:100A300000000000000000000000000000000000B6
:080A400000000000001BB700DC
:04000005000003C133
:00000001FF
