:020000040000FA
:100000004846002009040000130400001104000009
:10001000150400001704000019040000000000008F
:100020000000000000000000000000001B040000B1
:100030001D04000000000000D9030000650400005A
:100040002304000025040000270400002904000008
:100050002B0400002D0400002F04000031040000D8
:100060003304000035040000000000000000000020
:100070000000000000000000000000000000000080
:100080000000000000000000000000000000000070
:100090000000000000000000000000000000000060
:1000A0000000000000000000000000000000000050
:1003C000DFF810D000F03CF800480047B904000006
:1003D000AFF3008048460020EFF3098020B120E908
:1003E000F00F074909680860054806490A68026075
:1003F0001068B0E8F00F80F309884EF0040E7047E3
:1004000010000020140000200B4880470B480047D4
:10041000FEE7FEE7FEE7FEE7FEE7FEE7FEE7FEE7B4
:10042000FEE7FEE7FEE7FEE7FEE7FEE7FEE7FEE7A4
:10043000FEE7FEE7FEE700006D040000C1030000D8
:10044000064C074D06E0E06840F0010394E8070021
:1004500098471034AC42F6D3FFF7B6FF4C0B0000C0
:100460006C0B000010B500F051FA10BD03480449B0
:10047000086004480449086070470000000000005C
:1004800008ED00E0001BB7002400002002E008C8CF
:10049000121F08C1002AFAD170477047002001E0FE
:1004A00001C1121F002AFBD17047002000E0401C50
:1004B000FF28FCDB7047000008B500F0CDF90020F4
:1004C000154B4FF0113215490090154800F028F9EE
:1004D0000120144B002214490090144800F020F928
:1004E0000120134B4FF0223212490090124800F0C5
:1004F00017F91F20114B002211490090114800F0FC
:100500000FF910481049086000F0F6F80F4908602C
:1005100000F06EF9002008BDB8100020ED090000C1
:1005200028000020B8200020110A00004C00002004
:10053000B83000202D0A000070000020B8400020D4
:10054000490A000094000020180000201400002038
:1005500001238B4002689A43026070472020704755
:1005600000B50146087818B10878134A105C00BD40
:10057000088800F47F4030B10888C0F307200E4A95
:10058000105C0830F3E7086800F47F0030B10868B9
:10059000C0F30740084A105C1030E8E7086800F034
:1005A0007F4028B10868000E034A105C1830DEE76F
:1005B000FFF7D4FFDBE700004C0A000000210160D8
:1005C000704701238B4002681A43026070474268FB
:1005D00012680A6042684A6042681160416082683D
:1005E000521C82607047486002680A60026851606D
:1005F00001608268521C82607047014688687047BB
:10060000014600208A6802B1486870474060006077
:10061000002181607047D1E900325A60D1E900239E
:100620001A608268521E82607047014600208A6804
:100630003AB148684268116042684A608A68521E4E
:100640008A607047006040607047000030B5024625
:100650001148006850434FF47A71B0FBF1F0401E2E
:100660004FF0E021486148170721002804DB4B07C1
:100670001C0E0A4B1C5406E04B071D0E084B00F0E5
:100680000F04241F1D5500BF00204FF0E02188619A
:100690000720086130BD00002400002000E400E0D5
:1006A00018ED00E070B5044600F01AF80546214642
:1006B0000648006800F07CF90448006800F000F982
:1006C000284600F013F800F0A1F870BD10000020DB
:1006D00010B50248FFF79AFF10BD00003842002015
:1006E00000BFEFF31081084672B6704700BF80F379
:1006F000108800BF7047000070B50748FFF730FF53
:10070000044604EB4401054A02EB8100FFF778FF41
:100710000546281F70BD000020000020B8400020C2
:100720002DE9F04105460F4690461C46069E4FF0C7
:100730008071201F04460160201F044607601421B9
:10074000201F044601601221201F0446016003217E
:10075000201F044601600221201F04460160012180
:10076000201F04460160201F0446C0F800801121AC
:10077000201F044601601021201F0446016009214A
:10078000201F044601600821201F04460160072144
:10079000201F044601600621201F04460160052138
:1007A000201F044601600421201F044601600A2026
:1007B00028622C600020E860AE61E86105F110005D
:1007C000FFF740FF281DFFF73DFF06EB4601064AF5
:1007D00002EB8100291DFFF7FAFE31460348FFF7BF
:1007E000F0FEBDE8F0810000B840002020000020AD
:1007F000002080F3098800BFFF2003490870C80665
:1008000001491E390860704722ED00E070B5FFF71E
:1008100067FF05460D480078002803DD2846FFF7EE
:1008200065FF70BDFFF768FF044609480068A042F5
:1008300006D0084804602846FFF758FF00F05EF82D
:100840002846FFF753FF00BFEBE700001C00002025
:10085000100000201400002010B500F017F809481F
:10086000FFF7ACFEFFF734FF002407E004EB440180
:10087000054A02EB8100FFF7C9FE641C202CF5DB62
:1008800010BD000020000020B840002000200149D9
:10089000087070471C00002010B50446A16901EBE8
:1008A0004101054A02EB8100211DFFF79CFE034830
:1008B000A169FFF786FE10BDB8400020200000208F
:1008C00010B50446A16901EB41010A4A02EB81001F
:1008D000211DFFF7A0FEA16901EB4101054A02EBD2
:1008E0008100FFF78AFE18B90348A169FFF730FEBF
:1008F00010BD0000B8400020200000204FF08050C4
:10090000014908607047000004ED00E070B5FFF792
:10091000E7FE0646234844683FE0A4F11005E86876
:10092000401EE86028B9284600F052F82846FFF734
:10093000B3FF1D480068006A401E1B490968086231
:1009400028BB19490968896901EB4101174A02EB83
:100950008100FFF752FED0B113490968896901EBA4
:100960004101124A02EB8100FFF75FFE0E49096860
:10097000896901EB41010D4A02EB81000A490968CE
:10098000091DFFF730FE0A20074909680862304652
:10099000FFF7ACFEFFF73AFF646802488442BCD11F
:1009A00070BD00003842002010000020B840002038
:1009B00070B504460D46E56004F110010348FFF7E9
:1009C00012FEE06940F00200E06170BD3842002094
:1009D00010B5044604F110010348FFF71CFEE0695E
:1009E00020F00200E06110BD384200200A20FFF72D
:1009F0002DFE00BF0020054908600120FFF752FED0
:100A0000012002490860FFF74DFEF3E700000020D7
:100A100000BF002004490860FFF747FD012002499C
:100A20000860FFF742FDF4E70400002000BF00204B
:100A300004490860FFF739FD012002490860FFF70B
:100A400034FDF4E70800002000BFFEE7FF000100CE
:100A50000200010003000100020001000400010087
:100A60000200010003000100020001000500010076
:100A70000200010003000100020001000400010067
:100A80000200010003000100020001000600010055
:100A90000200010003000100020001000400010047
:100AA0000200010003000100020001000500010036
:100AB0000200010003000100020001000400010027
:100AC0000200010003000100020001000700010014
:100AD0000200010003000100020001000400010007
:100AE00002000100030001000200010005000100F6
:100AF00002000100030001000200010004000100E7
:100B000002000100030001000200010006000100D4
:100B100002000100030001000200010004000100C6
:100B200002000100030001000200010005000100B5
:100B300002000100030001000200010004000100A6
:100B40000200010003000100020001006C0B000024
:100B500000000020280000008C040000940B00001E
:100B600028000020204600009C0400000000000037
:100B70000000000000000000000000000000000075
:100B80000000000000000000000000000000000065
:040B9000001BB7008F
:04000005000003C133
:00000001FF
