:020000040000FA
:10000000F867002009040000130400001104000038
:10001000150400001704000019040000000000008F
:100020000000000000000000000000001B040000B1
:100030001D04000000000000D9030000650400005A
:100040002304000025040000270400002904000008
:100050002B0400002D0400002F04000031040000D8
:100060003304000035040000000000000000000020
:100070000000000000000000000000000000000080
:100080000000000000000000000000000000000070
:100090000000000000000000000000000000000060
:1000A0000000000000000000000000000000000050
:1003C000DFF810D000F03CF800480047AD04000012
:1003D000AFF30080F8670020EFF3098020B120E937
:1003E000F00F074909680860054806490A68026075
:1003F0001068B0E8F00F80F309884EF0040E7047E3
:1004000020000020240000200B4880470B480047B4
:10041000FEE7FEE7FEE7FEE7FEE7FEE7FEE7FEE7B4
:10042000FEE7FEE7FEE7FEE7FEE7FEE7FEE7FEE7A4
:10043000FEE7FEE7FEE700006D040000C1030000D8
:10044000064C074D06E0E06840F0010394E8070021
:1004500098471034AC42F6D3FFF7B6FFE80F000020
:100460000810000010B500F041FB10BD034804491E
:10047000086004480449086070470000000000005C
:1004800008ED00E0001BB7003400002002E008C8BF
:10049000121F08C1002AFAD170477047002001E0FE
:1004A00001C1121F002AFBD17047000008B500F0FF
:1004B000C3FA00F0D9FB00201A4B4FF011321A4951
:1004C00000901A4800F018FA0120194B002219492F
:1004D0000090194800F010FA0020184B4FF022321B
:1004E00017490090174800F007FA0120164B4FF00B
:1004F000333216490090164800F0FEF91F20154BC4
:10050000002215490090154800F0F6F913481449E7
:10051000086000F0DDF91349086000F059FA002086
:1005200008BD000078110020D10D00003800002027
:1005300078210020790E000078000020783100201A
:10054000990E0000B800002078410020B90E00008C
:10055000F800002078510020D90E0000380100205A
:10056000280000202400002001238B4002689A43C9
:10057000026070472020704700B50146087818B126
:100580000878134A105C00BD088800F47F4030B141
:100590000888C0F307200E4A105C0830F3E70868AB
:1005A00000F47F0030B10868C0F30740084A105CCF
:1005B0001030E8E7086800F07F4028B10868000EB6
:1005C000034A105C1830DEE7FFF7D4FFDBE70000DA
:1005D000E80E000000210160704701238B40026893
:1005E0001A430260704770B504460D462570201D01
:1005F00000F097F870BD2DE9F04104460D4616460F
:1006000000F05AF90746616B081D211D00F08EF8B5
:1006100000206063A563E663E06920F47F00E06189
:10062000384600F04FF9BDE8F0812DE9F047054666
:100630000C4616461F46DDF8208000F03DF9814645
:10064000E0693843E0616563A6630020E06320460B
:1006500000F026FA211D281D00F050F8B8F1000F17
:1006600003D04146204600F0A5FA484600F02AF99A
:10067000BDE8F08770B50446002500F01DF9064678
:10068000201D00F045F80546304600F01BF92846CD
:1006900070BD2DE9F04705460E4617464FF000089D
:1006A000002400F009F98146281D00F049F8B0F156
:1006B000000809D0A8F1040400206063A663E76382
:1006C000E06920F47F00E061E06810B1204600F0AE
:1006D00081FA204600F0D0F9484600F0F3F82046B1
:1006E000BDE8F087426812680A6042684A60426862
:1006F000116041608268521C8260704748600268E5
:100700000A600268516001608268521C8260704712
:10071000014688687047014600208A6802B148682F
:10072000704740600060002181607047D1E900326D
:100730005A60D1E900231A608268521E82607047B5
:10074000014600208A683AB14868426811604268F0
:100750004A608A68521E8A60704700604060704735
:1007600070B504460E46154601212046FFF73BFFB3
:1007700065610DB9266105E0AE4201D9284600E069
:100780003046206170BD000070B5044600F094F85A
:1007900006462046FFF76EFF70B100221146204644
:1007A000FFF777FF05460C49A869096889698842FF
:1007B00001D200F01BF90AE02069401C2061606949
:1007C00028B1D4E90401884201D96069206130462A
:1007D00000F078F870BD000020000020F8B5044655
:1007E0000D4600F069F80646206938B12069401EC0
:1007F0002061304600F066F80020F8BD00231A465C
:100800000748009501682046FFF70FFF304600F0CB
:1008100059F800F0EBF802480068C06BEDE7000003
:100820002000002030B502461148006850434FF4C4
:100830007A71B0FBF1F0401E4FF0E021486148179B
:100840000721002804DB4B071C0E0A4B1C5406E052
:100850004B071D0E084B00F00F04241F1D5500BF51
:1008600000204FF0E02188610720086130BD0000C2
:100870003400002000E400E018ED00E070B504460C
:1008800000F01AF8054621460648006800F092F983
:100890000448006800F004F9284600F013F800F05E
:1008A000A5F870BD2000002010B50248FFF739FF01
:1008B00010BD00006453002000BFEFF31081084614
:1008C00072B6704700BF80F3108800BF7047000009
:1008D00070B50748FFF750FE044604EB4401054A93
:1008E00002EB8100FFF717FF0546281F70BD0000CF
:1008F00030000020E45100202DE9F04105460F466C
:1009000090461C46069E4FF08071201F04460160F1
:10091000201F044607601421201F04460160122195
:10092000201F044601600321201F044601600221AC
:10093000201F044601600121201F04460160201F82
:100940000446C0F800801121201F044601601021D8
:10095000201F044601600921201F04460160082170
:10096000201F044601600721201F04460160062164
:10097000201F044601600521201F04460160042158
:10098000201F044601600A2028622C600020E860D5
:10099000AE61E8616862A862E86285F8300005F13E
:1009A0001000FFF7DAFE281DFFF7D7FE06EB460121
:1009B000054A02EB8100291DFFF794FE31460348EA
:1009C000FFF70BFEBDE8F081E4510020300000206D
:1009D000002080F3098800BFFF2003490870C80683
:1009E00001491E390860704722ED00E070B5FFF73D
:1009F00063FF05460D480078002803DD2846FFF711
:100A000061FF70BDFFF764FF044609480068A0421B
:100A100006D0084804602846FFF754FF00F05EF84F
:100A20002846FFF74FFF00BFEBE700002C00002037
:100A3000200000202400002010B500F017F809481D
:100A4000FFF7C8FDFFF730FF002407E004EB440187
:100A5000054A02EB8100FFF764FE641C202CF5DBE5
:100A600010BD000030000020E451002000200149AA
:100A7000087070472C00002010B50446A16901EBF6
:100A80004101054A02EB8100211DFFF737FE0348B3
:100A9000A169FFF7A2FD10BDE45100203000002045
:100AA00010B50446A16901EB41010A4A02EB81003D
:100AB000211DFFF73BFEA16901EB4101054A02EB55
:100AC0008100FFF725FE18B90348A169FFF74CFD27
:100AD00010BD0000E4510020300000204FF0805095
:100AE000014908607047000004ED00E070B5FFF7B1
:100AF000E3FE06462748456813E0A5F11004E068C8
:100B0000401EE06060B9606B20B1012200212046E8
:100B1000FFF771FD204600F05DF82046FFF7ACFFBF
:100B20006D681C488542E8D11B480068006A401E79
:100B300019490968086228BB17490968896901EBE6
:100B40004101164A02EB8100FFF7E2FDD0B11249E4
:100B50000968896901EB4101104A02EB8100FFF746
:100B6000EFFD0D490968896901EB41010B4A02EB70
:100B7000810009490968091DFFF7C0FD0A200649DF
:100B8000096808623046FFF79DFE00F095F8FFF710
:100B90002DFF70BD6453002020000020E451002090
:100BA00010B5044604F110010148FFF7BFFD10BD68
:100BB0006453002070B504460D46E56004F1100151
:100BC0000348FFF79BFDE06940F00400E06170BD61
:100BD0006453002010B504462046FFF7E1FFE069AA
:100BE00020F00400E06110BD70B505466E681CE0A1
:100BF0003446206918B12069401E2061A0B9022046
:100C000084F82000D4E905108847012084F82000EA
:100C1000E06810B1E068206106E021462846FFF751
:100C200085FD032084F820007668AE42E0D170BDD7
:100C30002DE9F04704460D4616461F46DDE90889B2
:100C40002046FFF78AFDA560E6606761C4F818805A
:100C5000C4F81C900DB9266101E0A0682061002055
:100C600084F82000BDE8F08708B50C48FFF759FD6F
:100C70000B48FFF756FD012211460A48FFF770FDA9
:100C8000002211460848FFF76BFD0120074B0022A8
:100C9000074900900748FFF72FFE08BD705300205A
:100CA0007C53002088530020A0530020F8630020CC
:100CB000DD0C0000B853002010B5FFF7FDFD044621
:100CC0000448FFF791FF2046FFF7FCFD0248FFF7BD
:100CD0005BFD10BD70530020A053002000BF002119
:100CE0000648FFF77BFD00210548FFF777FD054823
:100CF000FFF77AFF0248FFF747FDF0E7A053002017
:100D0000885300207C53002070B5044694F82000DE
:100D100010B1032825D100E000BFA06808B1A06889
:100D200000E0E0682061012084F82000207F00F0CE
:100D3000010050B1FFF7C0FD054621460A48FFF704
:100D4000DDFC2846FFF7BEFD0AE000210748FFF75B
:100D500045FD21460648FFF7D1FC0448FFF714FD86
:100D600000E000BF00BF70BD70530020885300201A
:100D70007C53002070B5044694F82000012802D06E
:100D800002281CD100E000BF207F00F0010050B11C
:100D9000FFF792FD054621460A48FFF7C7FC2846A3
:100DA000FFF790FD0AE000210748FFF717FD2146F5
:100DB0000648FFF7BBFC0448FFF7E6FC00E000BF75
:100DC00000BF70BD70530020885300207C5300206A
:100DD0001CB500240A20FFF725FD01201E491F4BEA
:100DE0000A22CDE9001064211D48FFF721FF1C48AD
:100DF000FFF78AFF01201B49184B1422CDE9001090
:100E0000C8211948FFF714FF1748FFF77DFF00209E
:100E10001649124B0246CDE900104FF49671144862
:100E2000FFF706FF1248FFF76FFF00BF00201149D0
:100E300008600120FFF722FD01200E490860FFF73E
:100E40001DFD002CF2D1C820FFF718FD0448FFF764
:100E500091FF0124EAE7000010000020DD0E0000F1
:100E600078510020140000209C5100201800002020
:100E7000C05100200000002000BF0020054908608C
:100E80000120FFF7FBFC012002490860FFF7F6FC98
:100E9000F3E700000400002000BF002005490860BF
:100EA0000120FFF7EBFC012002490860FFF7E6FC98
:100EB000F3E700000800002000BF0020054908609B
:100EC0000120FFF7DBFC012002490860FFF7D6FC98
:100ED000F3E700000C00002000BFFEE701460A68AF
:100EE00082F001020A607047FF0001000200010069
:100EF00003000100020001000400010002000100E3
:100F000003000100020001000500010002000100D1
:100F100003000100020001000400010002000100C2
:100F200003000100020001000600010002000100B0
:100F300003000100020001000400010002000100A2
:100F40000300010002000100050001000200010091
:100F50000300010002000100040001000200010082
:100F6000030001000200010007000100020001006F
:100F70000300010002000100040001000200010062
:100F80000300010002000100050001000200010051
:100F90000300010002000100040001000200010042
:100FA0000300010002000100060001000200010030
:100FB0000300010002000100040001000200010022
:100FC0000300010002000100050001000200010011
:100FD0000300010002000100040001000200010002
:100FE00003000100020001000810000000000020C2
:100FF000380000008C040000401000003800002081
:10100000C06700009C040000000000000000000019
:1010100000000000000000000000000000000000D0
:1010200000000000000000000000000000000000C0
:10103000000000000000000000000000001BB700DE
:04000005000003C133
:00000001FF
