:020000040000FA
:10000000C056002009040000130400001104000081
:10001000150400001704000019040000000000008F
:100020000000000000000000000000001B040000B1
:100030001D04000000000000D9030000650400005A
:100040002304000025040000270400002904000008
:100050002B0400002D0400002F04000031040000D8
:100060003304000035040000000000000000000020
:100070000000000000000000000000000000000080
:100080000000000000000000000000000000000070
:100090000000000000000000000000000000000060
:1000A0000000000000000000000000000000000050
:1003C000DFF810D000F03CF800480047AD04000012
:1003D000AFF30080C0560020EFF3098020B120E980
:1003E000F00F074909680860054806490A68026075
:1003F0001068B0E8F00F80F309884EF0040E7047E3
:1004000014000020180000200B4880470B480047CC
:10041000FEE7FEE7FEE7FEE7FEE7FEE7FEE7FEE7B4
:10042000FEE7FEE7FEE7FEE7FEE7FEE7FEE7FEE7A4
:10043000FEE7FEE7FEE700006D040000C1030000D8
:10044000064C074D06E0E06840F0010394E8070021
:1004500098471034AC42F6D3FFF7B6FFBC0C00004F
:10046000DC0C000010B500F0C7FA10BD03480449C9
:10047000086004480449086070470000000000005C
:1004800008ED00E0001BB7002800002002E008C8CB
:10049000121F08C1002AFAD170477047002001E0FE
:1004A00001C1121F002AFBD17047000008B500F0FF
:1004B0003FFA00201A4B4FF011321A4900901A48A7
:1004C00000F08AF90120194B0022194900901948BF
:1004D00000F082F90020184B4FF0223217490090AB
:1004E000174800F079F90120164B4FF033321649C6
:1004F0000090164800F070F91F20154B0022154996
:100500000090154800F068F913481449086000F09D
:100510004FF91349086000F0D7F9002008BD00002A
:1005200030110020E50A00002C00002030210020BE
:10053000290B00006000002030310020590B000022
:100540009400002030410020890B0000C8000020EA
:1005500030510020B90B0000FC0000201C000020DE
:100560001800002001238B4002689A430260704704
:100570002020704700B50146087818B10878134A62
:10058000105C00BD088800F47F4030B10888C0F3DB
:1005900007200E4A105C0830F3E7086800F47F007B
:1005A00030B10868C0F30740084A105C1030E8E733
:1005B000086800F07F4028B10868000E034A105C0C
:1005C0001830DEE7FFF7D4FFDBE70000BC0B0000CC
:1005D00000210160704701238B4002681A430260CA
:1005E0007047426812680A6042684A604268116057
:1005F00041608268521C82607047486002680A60ED
:100600000268516001608268521C82607047014636
:1006100088687047014600208A6802B148687047C0
:1006200040600060002181607047D1E900325A606B
:10063000D1E900231A608268521E82607047014629
:1006400000208A683AB148684268116042684A608E
:100650008A68521E8A6070470060406070470000E0
:1006600030B502461148006850434FF47A71B0FB30
:10067000F1F0401E4FF0E0214861481707210028A3
:1006800004DB4B071C0E0A4B1C5406E04B071D0EE7
:10069000084B00F00F04241F1D5500BF00204FF031
:1006A000E02188610720086130BD0000280000209B
:1006B00000E400E018ED00E070B5044600F036F804
:1006C000054621460648006800F0F2F90448006833
:1006D00000F080F9284600F02FF800F003F970BD13
:1006E0001400002010B50248FFF79AFF10BD00006B
:1006F000B052002010B500F019F804460A4800680E
:1007000000F04AF908480068806A30B1064A126869
:10071000D06A054A1268916A8847204600F00CF8B2
:1007200000F0E0F810BD00001400002000BFEFF35F
:100730001081084672B6704700BF80F3108800BF72
:100740007047000070B50446FFF7F0FF0546207FB4
:1007500000F0040018B1204600F0A0F906E0207F68
:1007600000F0080010B9204600F016F9A06A10B198
:10077000D4E90A10884705480068A04201D100F07A
:10078000B1F82846FFF7D8FF70BD00001400002024
:1007900070B5FFF7CBFF05460448006890F830407D
:1007A0002846FFF7C9FF204670BD00001400002056
:1007B00070B50748FFF7DEFE044604EB4401054A26
:1007C00002EB8100FFF726FF0546281F70BD0000E1
:1007D00024000020305100202DE9F04105460F464D
:1007E00090461C46069E4FF08071201F0446016013
:1007F000201F044607601421201F044601601221B7
:10080000201F044601600321201F044601600221CD
:10081000201F044601600121201F04460160201FA3
:100820000446C0F800801121201F044601601021F9
:10083000201F044601600921201F04460160082191
:10084000201F044601600721201F04460160062185
:10085000201F044601600521201F04460160042179
:10086000201F044601600A2028622C600020E860F6
:10087000AE61E8616862A862E86285F8300005F15F
:100880001000FFF7E9FE281DFFF7E6FE06EB460124
:10089000054A02EB8100291DFFF7A3FE31460348FC
:1008A000FFF799FEBDE8F0813051002024000020C0
:1008B00070B50446FFF73AFF0546012084F8300082
:1008C0002846FFF739FF70BD002080F3098800BF7C
:1008D000FF2003490870C80601491E3908607047A7
:1008E00022ED00E070B5FFF721FF05460D480078C6
:1008F000002803DD2846FFF71FFF70BDFFF758FFF4
:10090000044609480068A04206D00848046028460A
:10091000FFF712FF00F068F82846FFF70DFF00BF51
:10092000EBE7000020000020140000201800002049
:1009300010B500F017F80948FFF74AFEFFF7D2FE9E
:10094000002407E004EB4401054A02EB8100FFF7B5
:1009500067FE641C202CF5DB10BD00002400002085
:10096000305100200020014908707047200000200D
:1009700010B50446A16901EB4101054A02EB810073
:10098000211DFFF73AFE0348A169FFF724FE10BDC1
:10099000305100202400002010B50446A16901EB6D
:1009A00041010A4A02EB8100211DFFF73EFEA169C9
:1009B00001EB4101054A02EB8100FFF728FE18B95F
:1009C0000348A169FFF7CEFD10BD000030510020A3
:1009D0002400002010B504462046FFF7DDFF10BDBF
:1009E0008162C262704700004FF080500149086088
:1009F0007047000004ED00E070B5FFF797FE064673
:100A0000234844683FE0A4F11005E868401EE86010
:100A100028B9284600F05CF82846FFF7A9FF1D48D2
:100A20000068006A401E1B490968086228BB194912
:100A30000968896901EB4101174A02EB8100FFF760
:100A4000E6FDD0B113490968896901EB4101124AF9
:100A500002EB8100FFF7F3FD0E490968896901EB9C
:100A600041010D4A02EB81000A490968091DFFF79F
:100A7000C4FD0A200749096808623046FFF75CFE9A
:100A8000FFF730FF646802488442BCD170BD0000AB
:100A9000B0520020140000203051002010B5044650
:100AA00004F110010148FFF7C0FD10BDB052002055
:100AB00070B504460D46E56004F110010348FFF7E8
:100AC0009CFDE06940F00400E06170BDB052002080
:100AD00010B504462046FFF7E1FFE06920F004006E
:100AE000E06110BD0A20FFF7BBFD0022084909485C
:100AF0000068FFF775FF00BF00200749086001206C
:100B0000FFF7DAFD012004490860FFF7D5FDF3E7A0
:100B10001D0B000014000020000000200021014AED
:100B20001160704700000020002400BF0020084929
:100B300008600120FFF7C0FD012005490860FFF7AC
:100B4000BBFD002CF2D10348FFF7FCFD0124EDE7CB
:100B5000040000202C00002000BFFFF719FE20B188
:100B6000002008490860FFF7C5FD0020054908601E
:100B70000120FFF7A1FD012002490860FFF79CFD5D
:100B8000EBE7000008000020002400BF0020084917
:100B900008600120FFF790FD012005490860FFF77C
:100BA0008BFD002CF2D10348FFF782FE0124EDE714
:100BB0000C0000209400002000BFFEE7FF000100B1
:100BC0000200010003000100020001000400010016
:100BD0000200010003000100020001000500010005
:100BE00002000100030001000200010004000100F6
:100BF00002000100030001000200010006000100E4
:100C000002000100030001000200010004000100D5
:100C100002000100030001000200010005000100C4
:100C200002000100030001000200010004000100B5
:100C300002000100030001000200010007000100A2
:100C40000200010003000100020001000400010095
:100C50000200010003000100020001000500010084
:100C60000200010003000100020001000400010075
:100C70000200010003000100020001000600010063
:100C80000200010003000100020001000400010055
:100C90000200010003000100020001000500010044
:100CA0000200010003000100020001000400010035
:100CB000020001000300010002000100DC0C000042
:100CC000000000202C0000008C040000080D000033
:100CD0002C000020945600009C040000000000003E
:100CE0000000000000000000000000000000000004
:100CF00000000000000000000000000000000000F4
:080D000000000000001BB70019
:04000005000003C133
:00000001FF
